{
  "_format": "hh-sol-artifact-1",
  "contractName": "ShuffleDao",
  "sourceName": "contracts/ShuffleDao.sol",
  "abi": [
    {
      "inputs": [
        {
          "internalType": "address",
          "name": "_sigAddress",
          "type": "address"
        },
        {
          "internalType": "address",
          "name": "_opponent",
          "type": "address"
        }
      ],
      "name": "buyin",
      "outputs": [],
      "stateMutability": "payable",
      "type": "function"
    },
    {
      "inputs": [],
      "name": "getFlopHashes",
      "outputs": [
        {
          "internalType": "bytes32",
          "name": "",
          "type": "bytes32"
        },
        {
          "internalType": "bytes32",
          "name": "",
          "type": "bytes32"
        },
        {
          "internalType": "bytes32",
          "name": "",
          "type": "bytes32"
        }
      ],
      "stateMutability": "view",
      "type": "function"
    },
    {
      "inputs": [],
      "name": "getRiverHashes",
      "outputs": [
        {
          "internalType": "bytes32",
          "name": "_hash",
          "type": "bytes32"
        }
      ],
      "stateMutability": "view",
      "type": "function"
    },
    {
      "inputs": [
        {
          "internalType": "address",
          "name": "_userAddress",
          "type": "address"
        }
      ],
      "name": "getSigKey",
      "outputs": [
        {
          "internalType": "address",
          "name": "_sigAddress",
          "type": "address"
        }
      ],
      "stateMutability": "view",
      "type": "function"
    },
    {
      "inputs": [],
      "name": "getTurnHashes",
      "outputs": [
        {
          "internalType": "bytes32",
          "name": "_hash",
          "type": "bytes32"
        }
      ],
      "stateMutability": "view",
      "type": "function"
    },
    {
      "inputs": [
        {
          "internalType": "address",
          "name": "",
          "type": "address"
        }
      ],
      "name": "players",
      "outputs": [
        {
          "internalType": "uint256",
          "name": "playerId",
          "type": "uint256"
        },
        {
          "internalType": "address",
          "name": "sigAddress",
          "type": "address"
        },
        {
          "internalType": "address",
          "name": "currentOpponent",
          "type": "address"
        },
        {
          "internalType": "uint256",
          "name": "buyinAmount",
          "type": "uint256"
        },
        {
          "internalType": "uint256",
          "name": "buyinTime",
          "type": "uint256"
        },
        {
          "internalType": "bool",
          "name": "isActive",
          "type": "bool"
        }
      ],
      "stateMutability": "view",
      "type": "function"
    },
    {
      "stateMutability": "payable",
      "type": "receive"
    }
  ],
  "bytecode": "0x608060405234801561001057600080fd5b506105ab806100206000396000f3fe6080604052600436106100595760003560e01c806320e6f50a14610065578063625b37ac1461009a57806368065f42146100af578063afc7269d146100d2578063e2eb41ff146100e7578063f11db5e91461018357600080fd5b3661006057005b600080fd5b34801561007157600080fd5b5061007a6101bb565b604080519384526020840192909252908201526060015b60405180910390f35b6100ad6100a83660046104ae565b610294565b005b3480156100bb57600080fd5b506100c46103c0565b604051908152602001610091565b3480156100de57600080fd5b506100c4610418565b3480156100f357600080fd5b506101486101023660046104e1565b600260208190526000918252604090912080546001820154928201546003830154600484015460059094015492946001600160a01b039081169492169290919060ff1686565b604080519687526001600160a01b039586166020880152939094169285019290925260608401526080830152151560a082015260c001610091565b34801561018f57600080fd5b506101a361019e3660046104e1565b610451565b6040516001600160a01b039091168152602001610091565b336000908152600260205260408120600501548190819060ff166101de57600080fd5b600042905060006002426000546001546101f89190610519565b6102029190610519565b61020c9190610538565b905060008260405160200161022391815260200190565b60408051808303601f190181528282528051602091820120818401879052838301869052825180850384018152606085018452805190830120608085019690965260a0808501979097528251808503909701875260c090930190915284519401939093209296919550919350915050565b3360009081526002602052604090206005015460ff16156102ec5760405162461bcd60e51b815260206004820152600e60248201526d616c72656164792061637469766560901b604482015260640160405180910390fd5b6040805160c0810182526001805482526001600160a01b0385811660208085019182528683168587019081523460608701908152426080880190815260a08801878152336000908152600295869052998a2089518155955186890180546001600160a01b0319908116928a1692909217905593519486018054909416949096169390931790915551600383015551600482015590516005909101805460ff1916911515919091179055805491926103a28361055a565b90915550506000805490806103b68361055a565b9190505550505050565b600080600054426103d19190610519565b6103de906209fbf1610519565b905080426040516020016103fc929190918252602082015260400190565b6040516020818303038152906040528051906020012091505090565b600080600154426104299190610519565b610436906201e240610519565b604080514260208201529081018290529091506060016103fc565b3360009081526002602052604081206005015460ff1661047057600080fd5b506001600160a01b039081166000908152600260205260409020600101541690565b80356001600160a01b03811681146104a957600080fd5b919050565b600080604083850312156104c157600080fd5b6104ca83610492565b91506104d860208401610492565b90509250929050565b6000602082840312156104f357600080fd5b6104fc82610492565b9392505050565b634e487b7160e01b600052601160045260246000fd5b600081600019048311821515161561053357610533610503565b500290565b60008261055557634e487b7160e01b600052601260045260246000fd5b500490565b600060001982141561056e5761056e610503565b506001019056fea26469706673582212207596377fdad5de64caa49acf0711162fceca83784afdd3f74deae20adafc6d0f64736f6c63430008090033",
  "linkReferences": {},
  "deployedLinkReferences": {}
}